:100000000C9452000C9471000C9471000C947100CB
:100010000C9471000C9471000C9471000C9471009C
:100020000C9471000C9471000C9471000C9471008C
:100030000C9471000C9471000C9471000C9471007C
:100040000C9471000C9471000C9471000C9471006C
:100050000C9471000C9471000C9471000C9471005C
:100060000C9471000C9471000C9471000C9471004C
:100070000C9471000C9471000C9471000C9471003C
:100080000C9471000C9471000C947100B600C100C6
:10009000E000FA0027014C0167019401B901D40185
:1000A000F901280211241FBECFEFD0E4DEBFCDBF7F
:1000B00011E0A0E0B1E0E2E0F5E000E00BBF02C03B
:1000C00007900D92A031B107D9F721E0A0E1B1E08E
:1000D00001C01D92A431B207E1F70E9452020C94B4
:1000E0007F020C940000CF93DF9300D01F92CDB716
:1000F000DEB789837B836A8389818A3031F48A8180
:100100009B81BC018DE00E94730080EC90E0FC01BB
:100110008081882F90E080729927892BB1F386EC3B
:1001200090E02981FC01208380E090E00F900F9007
:100130000F90DF91CF910895CF93DF93CDB7DEB7C6
:100140008091120190911301CC01A0E0B0E040E059
:1001500050E02BE030E0841B950B2817390708F49A
:1001600094C18A5B9F4FFC010C94760281E090E081
:10017000909313018093120185E290E0FC011082BC
:100180008DC185E290E0FC01108280911001882FE2
:1001900090E081709927892B39F481E090E0909369
:1001A0001301809312017AC182E090E090931301D1
:1001B0008093120185E290E021E0FC0120836EC172
:1001C00080911001882F90E081709927892B39F454
:1001D00083E090E090931301809312010BC082E0C2
:1001E00090E0909313018093120185E290E021E06A
:1001F000FC01208380911001882F90E08170992765
:10020000892B39F483E090E09093130180931201DD
:1002100045C184E090E0909313018093120185E240
:1002200090E020911101222F30E0A901440F551FC9
:1002300021E030E002C0220F331F4A95E2F7FC01B3
:100240002083809111018F5F8093110127C18091DC
:100250001001882F90E081709927892BB1F490913B
:10026000110180910E01891738F083E090E090939E
:1002700013018093120112C185E090E09093130165
:10028000809312011092110109C184E090E09093D3
:1002900013018093120102C180911001882F90E018
:1002A00081709927892B39F485E090E090931301B0
:1002B00080931201F3C086E090E090931301809345
:1002C000120185E290E020E2FC012083E7C08091EA
:1002D0001001882F90E081709927892B39F486E0EE
:1002E00090E09093130180931201D8C087E090E0D2
:1002F000909313018093120185E290E02091110107
:10030000222F30E0A901440F551F20E230E002C047
:10031000359527954A95E2F7FC01208380911101DC
:100320008F5F80931101BAC080911001882F90E0F7
:1003300081709927892BB1F49091110180910E0160
:10034000891738F086E090E09093130180931201B2
:10035000A5C088E090E09093130180931201109261
:1003600011019CC087E090E09093130180931201EB
:1003700095C080911001882F90E081709927892B7A
:1003800039F488E090E0909313018093120186C0C5
:1003900089E090E0909313018093120185E290E050
:1003A0002FE3FC0120837AC080911001882F90E018
:1003B00081709927892B39F489E090E0909313019B
:1003C000809312016BC08AE090E0909313018093B8
:1003D000120185E290E025E230E0F90120812095CC
:1003E0002F73FC012083809111018F5F8093110195
:1003F00055C080911001882F90E081709927892B3A
:1004000001F580911101282F30E080910E01882F95
:1004100090E00196821793073CF089E090E090937A
:100420001301809312013AC08BE090E09093130186
:10043000809312011092110185E290E0FC0110827C
:100440002DC08AE090E0909313018093120126C0A2
:1004500080911001882F90E081709927892B61F499
:100460008BE090E0909313018093120185E290E07D
:100470002FE3FC01208312C081E090E090931301F0
:10048000809312011092110109C010921301109271
:10049000120185E290E0FC01108200000000DF9173
:1004A000CF910895CF93DF93CDB7DEB781E290E08F
:1004B000FC01108282E290E02FEFFC01208384E2B5
:1004C00090E02FEFFC01208385E290E0FC01108298
:1004D000109213011092120180E290E0FC018081E1
:1004E0008095809310010E949C00F6CFEE0FFF1FB5
:1004F0000024001C0BBE0790F691E02D0994F8949F
:02050000FFCF2B
:100502000000000200000000730000000000020072
:00000001FF
