:100000000C944D000C946C000C946C000C946C00DF
:100010000C946C000C946C000C946C000C946C00B0
:100020000C946C000C946C000C946C000C946C00A0
:100030000C946C000C946C000C946C000C946C0090
:100040000C946C000C946C000C946C000C946C0080
:100050000C946C000C946C000C946C000C946C0070
:100060000C946C000C946C000C946C000C946C0060
:100070000C946C000C946C000C946C000C946C0050
:100080000C946C000C946C000C946C00B100BD00DE
:10009000D20006011C014101570111241FBECFEF00
:1000A000D0E4DEBFCDBF11E0A0E0B1E0E4EFF3E0CB
:1000B00000E00BBF02C007900D92AE30B107D9F738
:1000C00021E0AEE0B1E001C01D92A131B207E1F73D
:1000D0000E94CF010C94F8010C940000CF93DF93A1
:1000E00000D01F92CDB7DEB789837B836A83898175
:1000F0008A3031F48A819B81BC018DE00E946E00C0
:1001000080EC90E0FC018081882F90E0807299273C
:10011000892BB1F386EC90E02981FC01208380E0FB
:1001200090E00F900F900F90DF91CF910895CF93B3
:10013000DF93CDB7DEB780910F0190911001CC0114
:10014000A0E0B0E040E050E026E030E0841B950BFA
:100150002817390708F4D0C08A5B9F4FFC010C9424
:10016000EF0182E090E09093100180930F0188E20C
:1001700090E027E0FC012083C4C080910E01882F0D
:1001800090E083709927039739F481E090E0909391
:10019000100180930F0106C082E090E0909310015F
:1001A00080930F0180910E01882F90E08370992732
:1001B000892B39F482E090E09093100180930F0135
:1001C000A0C080910E01882F90E08370992701973D
:1001D00039F485E090E09093100180930F0191C075
:1001E00080910E01882F90E083709927029739F44F
:1001F00083E090E09093100180930F0182C081E032
:1002000090E09093100180930F017BC080910E01CC
:10021000882F90E083709927039739F481E090E06C
:100220009093100180930F016CC084E090E0909354
:10023000100180930F0165C080910E01882F90E01E
:1002400083709927039739F481E090E0909310012F
:1002500080930F0156C080910E01882F90E083702B
:100260009927029739F484E090E0909310018093ED
:100270000F0147C082E090E09093100180930F013E
:1002800040C080910E01882F90E0837099270397DA
:1002900039F481E090E09093100180930F0131C018
:1002A00086E090E09093100180930F012AC0809126
:1002B0000E01882F90E083709927039739F481E02D
:1002C00090E09093100180930F011BC080910E016C
:1002D000882F90E083709927019739F486E090E0A9
:1002E0009093100180930F010CC082E090E09093F6
:1002F000100180930F0105C01092100110920F01A0
:10030000000080910F019091100182309105E1F180
:100310008330910528F4009761F0019781F03BC08C
:100320008430910599F18430910570F00597E1F0E2
:1003300032C088E290E027E0FC0120832CC088E2F4
:1003400090E0FC01108227C088E290E0FC018081EF
:100350008823F1F088E290E028E230E0F901208182
:100360002150FC01208314C088E290E0FC018081D0
:10037000893080F488E290E028E230E0F9012081C1
:100380002F5FFC01208306C0000005C0000003C0F1
:10039000000001C000000000DF91CF910895CF93CD
:1003A000DF93CDB7DEB781E290E0FC01108282E2FC
:1003B00090E02FEFFC01208387E290E02FEFFC011B
:1003C000208388E290E0FC01108280E290E0FC0152
:1003D0008081809580930E010E949700F6CFEE0FEA
:1003E000FF1F0024001C0BBE0790F691E02D09941E
:0403F000F894FFCFAF
:0E03F40000000002000000006E00000000008B
:00000001FF
